:100000000C9482000C94AC030C94AC030C94AC03E1
:100010000C94AC030C94AC030C94AC030C94AC03A4
:100020000C94AC030C94AC030C94AC030C94AC0394
:100030000C94AC030C94AC030C94AC030C945901D9
:100040000C94AC030C94D2020C94AC030C94AC034F
:100050000C94AC030C94AC030C94AC030C94AC0364
:100060000C94AC030C94AC030C94AC030C94AC0354
:100070000C94AC030C94AC030C94AC030C94AC0344
:100080000C94AC030C94AC030C94AC030C94AC0334
:100090000C94AC030C94AC030C94AC030C94AC0324
:1000A0002A0E2A0F802A0F2A10802A0C2A0E802A54
:1000B000102A11802A112A120009602A122A13809C
:1000C0002808288800075C288829080007DC2908F8
:1000D000298800085C29882A080008DC2A132A14C9
:1000E000802A142A15802A152A160009612A162A40
:1000F000178028002804802A082A0C00095C28049C
:100100002808800011241FBECFEFCDBFDFE3DEBF84
:10011000E0EAF0E041E017C0B591A5913591259155
:10012000059107FD0CC095918591EF01F92FE82FFE
:1001300005900D92A217B307D9F7FE0104C01D92D6
:10014000A217B307E1F7E330F40731F70E94790310
:080150000C94AA00F894FFCF03
:100158000F931F93CF93DF93CDB7DEB7C855D1095F
:10016800CDBFDEBF8091162A882309F495C08091FF
:10017800152A81110DC0809103280E949103809156
:1001880001280E949103809100280E94910384C055
:10019800813089F4809103280E949103E09101281D
:1001A800F0E0E857F64D80810E9491038091002885
:1001B8000E94910371C0823089F4809103280E94C3
:1001C8009103E0910128F0E0E85FF64D80810E94FC
:1001D8009103809100280E9491035EC08330E9F466
:1001E8008091142A811108C060E888E898E20E948A
:1001F800AB0281E08093142A809103280E94910326
:10020800E0910128F0E0E857F74D80810E949103C2
:10021800809100280E9491033FC0843089F5809125
:10022800132A81111CC08E010F5F1F4FF80185E151
:1002380081938F5F8D36E1F768E5CE0101960E94C4
:10024800AB02EDE1F8E225E738E2D8018D918D01A6
:1002580081932E173F07C9F781E08093132A809175
:1002680003280E949103E0910128F0E0E85FF74D30
:1002780080810E949103809100280E9491030CC004
:10028800809103280E949103809101280E94910384
:10029800809100280E949103C85ADF4FCDBFDEBF6E
:0A02A800DF91CF911F910F9108958F
:1002B2001F920F920FB60F9211248F939F93EF9379
:1002C200FF938091A50883FF0BC0E0EAF8E09581D7
:1002D2009C64958392E09093102A91E09093112A66
:1002E20082FF0CC0E0EAF8E085818C64858383E0BC
:1002F2008093102A81E08093112A5CC086FF28C077
:1003020084FF0AC083E08093A40884E08093102ACB
:1003120081E08093112A4EC080910E2A90910F2A7B
:10032200891768F4E0910C2AF0910D2AE80FF11D6B
:1003320090819093A8088F5F80930E2A3BC083E040
:100342008093A40881E08093102A8093112A32C0FE
:10035200882354F584FF09C083E08093A40884E0D5
:100362008093102A81E08093112A80910E2AE091D5
:100372000C2AF0910D2AE80FF11D9091A8089083A4
:100382008F5F80930E2A90910F2A891720F482E0C2
:100392008093A4080FC087E08093A40881E0809333
:1003A200102A8093112A06C085E08093102A81E0EA
:1003B2008093112AFF91EF919F918F910F900FBE21
:0603C2000F901F9018953A
:1003C8008F929F92AF92BF92CF92DF92EF92FF925D
:1003D800CF93DF93EC01688179818A819B816115D4
:1003E80071058105910521F464E279ED8BE597E0CB
:1003F8002DE133EF41E050E00E94180349015A0112
:100408009B01AC01A7EAB1E40E9486036B017C0161
:10041800ACEEB4EFA50194010E94A403DC01CB016A
:100428008C0D9D1DAE1DBF1DB7FF03C00197A1090F
:10043800B04888839983AA83BB839F77DF91CF9144
:10044800FF90EF90DF90CF90BF90AF909F908F90EC
:1004580008950E94E401089588E09AE20E94E40168
:100468000895A0E0B0E08093082A9093092AA09309
:080478000A2AB0930B2A089533
:100480000E94A903809302289091122A91110DC015
:1004900090E8980F903730F48093032881E08093A0
:1004A000122A08951092122A08959130F1F4909131
:1004B000032820E8290F203148F48093012880E2A6
:1004C0008093A50482E08093122A08959059903178
:1004D00048F48093012880E28093A60482E0809310
:1004E000122A08951092122A0895923039F48093B6
:0E04F00000281092122A81E08093162A0895A7
:1004FE00813061F4E0EEF5E0828181608283E0E09C
:10050E00F4E080E1818380E282830AC0E0EEF5E0D0
:10051E0082818283E0E0F4E081E0818382E0828365
:10052E008BEA91E08093080890930908662319F0EE
:10053E0080E880930508E0E0F8E086818064868399
:08054E00868180688683089510
:100556000F931F93CF938C01C62F80E090E00E94EB
:100566005703CB010E943502C150A9F00E94300208
:100576002C2F30E0B9016F5F7F4F0E942F03D80107
:10058600A80FB11DF801E20FF31F80819C919083A3
:0E0596008C93C15059F7CF911F910F9108958A
:1005A4001F920F920FB60F9211242F933F934F93E4
:1005B4005F936F937F938F939F93AF93BF93EF93C7
:1005C400FF930E944002FF91EF91BF91AF919F91E1
:1005D4008F917F916F915F914F913F912F910F90E8
:0805E4000FBE0F901F90189547
:1005EC00A1E21A2EAA1BBB1BFD010DC0AA1FBB1F2B
:1005FC00EE1FFF1FA217B307E407F50720F0A21B9D
:10060C00B30BE40BF50B661F771F881F991F1A9409
:10061C0069F760957095809590959B01AC01BD0133
:04062C00CF0108955D
:10063000052E97FB1EF400940E94990357FD07D0E6
:100640000E94F60207FC03D04EF40C9499035095D7
:0E0650004095309521953F4F4F4F5F4F0895D5
:10065E0097FB072E16F4009407D077FD09D00E9461
:10066E00430307FC05D03EF4909581959F4F089566
:08067E00709561957F4F08950E
:10068600AA1BBB1B51E107C0AA1FBB1FA617B707B2
:1006960010F0A61BB70B881F991F5A95A9F78095CE
:0806A6009095BC01CD010895FF
:1006AE00FC010FB6F8946091042870910528809192
:1006BE000628909107280FBE309721F06083718332
:0606CE008283938308956E
:1006D400A29FB001B39FC001A39F700D811D11247F
:0E06E400911DB29F700D811D1124911D08956E
:1006F200789461E080E00E947F02E0EAF4E080E228
:0A070200818385830E94AC00FDCFC7
:10070C000E946A03A59F900DB49F900DA49F800D2D
:06071C00911D1124089557
:10072200E0E0F8E0948195FFFDCF80930208089500
:1007320090958095709561957F4F8F4F9F4F08954B
:10074200B7FF0C9486030E948603821B930B0895C5
:06075200809100080895EB
:040758000C940000FD
:10075C00000000000000000000000000000000008D
:10076C00000000000015161718191A1B1C1D1E1F5F
:10077C00202122232425262728292A2B2C2D2E2FF5
:10078C00303132333435363738393A3B3C3D3E3FE5
:10079C00404142434445464748494A4B4C4D4E4FD5
:1007AC00505152535455565758595A5B5C5D5E5FC5
:1007BC00606162636465666768696A6B6C000000FF
:1007CC00000000000000000000000000000000001D
:1007DC00000102030405060708090A0B0C0D0E0F95
:1007EC00101112131415161718191A1B1C1D1E1F85
:1007FC00202122232425262728292A2B2C2D2E2F75
:10080C00303132333435363738393A3B3C3D3E3F64
:10081C00404142434445464748494A4B4C4D4E4F54
:10082C00505152535455565758595A5B5C5D5E5F44
:10083C00606162636465666768696A6B6C6D6E6F34
:10084C00707172737475767778797A7B7C7D7E7F24
:10085C00000102030405060708090A0B0C0D0E0F14
:10086C00101112131415161718191A1B1C1D1E1F04
:10087C00202122232425262728292A2B2C2D2E2FF4
:10088C00303132333435363738393A3B3C3D3E3DE6
:10089C003C3B3A393837363534333231302F2E2D04
:1008AC002C2B2A292827262524232221201F1E1DF4
:1008BC001C1B1A191817161514131211100F0E0DE4
:1008CC000C0B0A09080706050403020100000000CE
:1008DC000000007F7E7D7C7B7A79787776757473E7
:1008EC007271706F6E6D6C6B6A6968676665646354
:1008FC006261605F5E5D5C5B5A5958575655545344
:10090C005251504F4E4D4C4B4A4948474645444333
:10091C004241403F3E3D3C3B3A3938373635343323
:10092C003231302F2E2D2C2B2A2928272625242313
:10093C002221201F1E1D1C1B1A1918171615141303
:10094C001211100F0E0D0C0B0A09080706050403F3
:04095C000100000096
:010960000195
:010961000194
:00000001FF
