:100000000C94B0000C94200B0C94200B0C944F0912
:100010000C94200B0C94200B0C94200B0C94200BB4
:100020000C94200B0C94200B0C94200B0C94200BA4
:100030000C94200B0C94200B0C94200B0C94BC04FF
:100040000C94200B0C942B090C94200B0C94200B7B
:100050000C94200B0C94200B0C94200B0C94200B74
:100060000C94200B0C94200B0C94200B0C94200B64
:100070000C94200B0C94200B0C94200B0C94200B54
:100080000C94200B0C94200B0C94200B0C94200B44
:100090000C94200B0C94200B0C94200B0C94200B34
:1000A00028002801802F932F94802F942F95802F44
:1000B000912F93802F952F96802F962F9700055F75
:1000C000280D2C0D0016442F972F98802F982F99CC
:1000D000001DC82F992F9A001DC92F9A2F9B802889
:1000E000012804802C0D2C8D001A442C8D2D0D0020
:1000F0001AC42D0D2D8D001B442D8D2E0D001BC4FB
:100100002E0D2E8D001C442E8D2F0D001CC42F0D86
:100110002F8D001D442F9B2F9C802F9C2F9D802F67
:100120009D2F9E802F9E2F9F802F9F2FA0802FA0DE
:100130002FA1802FA12FA2802FA22FA3802FA32F2A
:10014000A4802FA42FA5001DCA2FA52FA6802804A8
:100150002809802F8D2F91001DC42809280D8000AB
:1001600011241FBECFEFCDBFDFE3DEBFE0EAF0E03A
:1001700041E017C0B591A59135912591059107FDF5
:100180000CC095918591EF01F92FE82F05900D9204
:10019000A217B307D9F7FE0104C01D92A217B30737
:1001A000E1F7EF35F40731F70E949B080C94D80073
:0401B000F894FFCFF1
:1001B4004E6F726D616C00466C6970706564004DC1
:1001C4006972726F7265640052616E646F6D203182
:1001D40032380052616E646F6D203838004F63749A
:1001E400617665205570004F637461766520446FB5
:1001F400776E00436972636C65206F66203574689E
:07020400004572726F7200E9
:10020B0000000000020001000001050200FC0100DB
:10021B0003020400FC020005050600FC06000306B1
:10022B000400FC090003050400FC0B000405050099
:10023B00FC0E0001020200FC0F0002050300FC1182
:10024B000002050300FC130003030400FD1500036B
:10025B00030400FD17000202030000180003010451
:10026B0000FE190001010200001A0003050400FC46
:10027B001C0003050400FC1E0002050300FC20000B
:10028B0003050400FC220003050400FC2400030505
:10029B000400FC260003050400FC280003050400F1
:1002AB00FC2A0003050400FC2C0003050400FC2EB3
:1002BB000003050400FC300001030200FD310002C5
:1002CB00040300FD320002030300FD3300030304AB
:1002DB0000FD350002030300FD360003050400FC9E
:1002EB00380003050400FC3A0003050400FC3C0045
:1002FB0003050400FC3E0003050400FC400003055D
:10030B000400FC420003050400FC44000305040048
:10031B00FC460003050400FC480003050400FC4AEE
:10032B000001050200FC4B0003050400FC4D00031B
:10033B00050400FC4F0003050400FC5100050506F5
:10034B0000FC550004050500FC580003050400FCE7
:10035B005A0003050400FC5C0003060400FC5F006C
:10036B0003050400FC610003050400FC63000305A6
:10037B000400FC650003050400FC67000305040092
:10038B00FC690005050600FC6D0003050400FC6F0D
:10039B000003050400FC710003050400FC7300025C
:1003AB00050300FC750003050400FC770002050340
:1003BB0000FC790003020400FC7A00040104000134
:1003CB007B0002020300FC7C0003040400FD7E00A2
:1003DB0003050400FC800003030400FE82000305F8
:1003EB000400FC840003040400FD860002050300E6
:1003FB00FC880003050400FD8A0003050400FC8C47
:10040B000001050200FC8D0002060300FC8F0003B7
:10041B00050400FC910002050300FC930005030694
:10042B0000FE950003030400FE970003030400FE87
:10043B00990003040400FE9B0003040400FE9D00CE
:10044B0002030300FE9E0003040400FDA00002054E
:10045B000300FCA20003030400FEA400030304003A
:10046B00FEA60005030600FEA80003030400FEAA77
:10047B000003040400FEAC0003040400FDAE000303
:10048B00050400FCB00001060200FCB100030504EA
:09049B0000FCB30004020500FDA1
:1004A400E8B457D5F5004E3E80A54A4A5A50C06A72
:1004B400409580AA805D0060E080254856D4754050
:1004C400C54EC51C9792F31C5354E5485554559496
:1004D400A04664E38098C50456C657DAD75C7246D2
:1004E400D6DCF3CEF34872D4B7DAF824D4BB5A92EC
:1004F4004E8EEB58809DB99056D4D74856D440D7E9
:100504005A711CE924B6D4B6A48C6B5500B55AB5FF
:1005140024E54EEAC09112D5C054F090C7F0935E22
:10052400718025DE5E306E80779C935AB845609268
:10053400EAAA40D56AD6805500D7407590E871E0A4
:10054400BA40B580B5008D54AA80ACE0E5706A2647
:04055400FCC8AC5AD9
:07055800A4040B02207E0742
:01055F00019A
:100560002F923F924F925F926F927F928F929F92C3
:10057000AF92BF92CF92DF92EF92FF920F931F93B1
:10058000CF93DF93CDB7DEB72697CDBFDEBF8A30DE
:1005900091F4E0910228F09103283696E49190912D
:1005A000982F80919A2FE99F800D11241092012895
:1005B00080939A2FDBC08D3009F4D8C02091022897
:1005C00030910328A9014C5F5F4FFA01949189177C
:1005D00008F4CCC03196E491E81708F4C7C0B9011B
:1005E0006E5F7F4FFB0185909490F82FF91BE7E039
:1005F000FE9F800C911C1124F40132969491319647
:10060000E491992309F4A6C0EE2309F4A3C0F401F0
:100610003596A491E090992FE92FF0E0EA0FF11DB3
:10062000A7FDFA95EE9ED001EF9EB00D112490919A
:100630000128FD01E90FF11DE138F10574F0109278
:100640000128F9013696E491F091982F90919A2F14
:10065000FE9F900D112490939A2F3090982FF09137
:10066000972FF983A0919A2F90910128FA01449134
:10067000FB0165917491841BAB01F7E08F9F400DE6
:10068000511D1124F901A590B490FA01C590D490A0
:10069000FA01329674903196249132968491382FD3
:1006A0003196E4914E2F51E05E1520F0531510F075
:1006B00040E030E0222309F44DC02A2E2E0E5A2E9F
:1006C000439D500C1124E20FEA0FEA83E92F3E9D6F
:1006D000E00D1124EB83612C10E0980F9C8332C055
:1006E0008D81982F960D977041F496012F5F3F4FA3
:1006F000F501EC0DFD1D149169011123A4F4F1E045
:10070000EF1209C03F1207C04981622D2C81820F70
:100710000E94040808C00981242D4E2D4F0D652D1F
:100720008F2D0E94D309110F8D819E8101968D839B
:100730009E83FE0C8715A0F2670C2394530C9A81BC
:10074000921541F07720C9F3432C450CFB801D82A4
:100750001E82C6CFF4013496E4919091992F809136
:1007600001289E9F800D1124809301282696CDBFDD
:10077000DEBFDF91CF911F910F91FF90EF90DF903F
:10078000CF90BF90AF909F908F907F906F905F9031
:080790004F903F902F90089557
:100798000F931F93CF93DF93CDB7DEB7C855D10919
:1007A800CDBFDEBF8091A52F882309F4D0C0109259
:1007B800A52F8091A42F81110DC0809108280E9437
:1007C800E40A809106280E94E40A809104280E9485
:1007D800E40ABDC0813089F4809108280E94E40AA7
:1007E800E0910628F0E0E35FF04D80810E94E40A82
:1007F800809104280E94E40AAAC0823089F480917A
:1008080008280E94E40AE0910628F0E0E357F14D39
:1008180080810E94E40A809104280E94E40A97C01B
:100828008330E9F48091A32F811108C060E88DE03E
:100838009EE20E94040981E08093A32F80910828FA
:100848000E94E40AE0910628F0E0E35FF14D808120
:100858000E94E40A809104280E94E40A78C0843047
:1008680089F58091A22F81111CC08E010F5F1F4F47
:10087800F80185E181938F5F8D36E1F768E5CE0158
:1008880001960E940409E2EAFDE22AEF3DE2D8015E
:100898008D918D0181932E173F07C9F781E08093D1
:1008A800A22F809108280E94E40AE0910628F0E02F
:1008B800E357F24D80810E94E40A809104280E9447
:1008C800E40A45C0853089F4809108280E94E40A2A
:1008D800E0910628F0E0E35FF24D80810E94E40A8F
:1008E800809104280E94E40A32C0863089F48091FD
:1008F80008280E94E40AE0910628F0E0E357F34D47
:1009080080810E94E40A809104280E94E40A1FC0A2
:10091800873089F4809108280E94E40AE09106282B
:10092800F0E0E35FF34D80810E94E40A809104289F
:100938000E94E40A0CC0809108280E94E40A809171
:1009480006280E94E40A809104280E94E40A809103
:100958009B2F882321F00E94470510929B2FC85A8D
:10096800DF4FCDBFDEBFDF91CF911F910F9108956B
:100978001F920F920FB60F9211248F939F93EF93AC
:10098800FF938091A50883FF0BC0E0EAF8E095810A
:100998009C64958392E09093952F91E09093962F85
:1009A80082FF0CC0E0EAF8E085818C64858383E0EF
:1009B8008093952F81E08093962F5CC086FF28C096
:1009C80084FF0AC083E08093A40884E08093952F75
:1009D80081E08093962F4EC08091932F9091942F11
:1009E800891768F4E091912FF091922FE80FF11D8B
:1009F80090819093A8088F5F8093932F3BC083E0EA
:100A08008093A40881E08093952F8093962F32C01D
:100A1800882354F584FF09C083E08093A40884E008
:100A28008093952F81E08093962F8091932FE0916A
:100A3800912FF091922FE80FF11D9091A8089083C3
:100A48008F5F8093932F9091942F891720F482E0E1
:100A58008093A4080FC087E08093A40881E0809366
:100A6800952F8093962F06C085E08093952F81E07F
:100A78008093962FFF91EF919F918F910F900FBECA
:060A88000F901F9018956D
:100A8E008091A42F81110DC00E945E0A6FE082E05A
:100A9E000E94150B84EB91E40E9473090E94C30619
:100AAE000895813069F40E945E0A6FE082E00E9430
:100ABE00150B8BEB91E40E9473090E94C3060895F7
:100ACE00823069F40E945E0A6FE082E00E94150B8C
:100ADE0083EC91E40E9473090E94C306089583304B
:100AEE0069F40E945E0A6FE082E00E94150B8CECA6
:100AFE0091E40E9473090E94C3060895843069F43C
:100B0E000E945E0A6FE082E00E94150B87ED91E471
:100B1E000E9473090E94C3060895853069F40E94ED
:100B2E005E0A6FE082E00E94150B81EE91E40E9456
:100B3E0073090E94C3060895863069F40E945E0A06
:100B4E006FE082E00E94150B8BEE91E40E94730918
:100B5E000E94C3060895873069F40E945E0A6FE012
:100B6E0082E00E94150B87EF91E40E9473090E94A8
:100B7E00C30608950E945E0A6FE082E00E94150B84
:0E0B8E0085E092E40E9473090E94C306089558
:100B9C005F926F927F928F929F92AF92BF92CF9201
:100BAC00DF92EF92FF920F931F93CF93DF93C82F97
:100BBC00D62F142F822F90E0861B91096C0122F402
:100BCC00CC24DD24C81AD90A812F90E08C1B910902
:100BDC005C0122F4AA24BB24A81AB90AAC14BD04E3
:100BEC0034F4812F122F282F8C2FCD2FD82F1C1798
:100BFC0030F58D2FD22F282F8C2FC12F182F1FC0DF
:100C0C001C17B0F155245A9402C055245394AC14BB
:100C1C00BD0434F4402F6C2F8D2F0E94040805C0A6
:100C2C00402F6D2F8C2F0E940408E818F9081AF435
:100C3C00D50DE60CF71CCF5F1C1748F719C0612EB9
:100C4C00712C6C1A7108822F90E08D1B91094C014C
:100C5C0022F488249924881A990A730177201CF4A9
:100C6C008FEFE81AF80AF594E794D21770F2C8CF10
:100C7C00DF91CF911F910F91FF90EF90DF90CF906C
:100C8C00BF90AF909F908F907F906F905F900895E2
:100C9C00CF93C82F809300288EEA0E94EF0985ED30
:100CAC000E94EF0980E80E94EF0988EA0E94EF0990
:100CBC008FE30E94EF0983ED0E94EF0980E00E9410
:100CCC00EF0980E40E94EF098DE80E94EF09C13022
:100CDC0011F580E10E94EF0980E20E94EF0980E0AB
:100CEC000E94EF0981EA0E94EF0988EC0E94EF094B
:100CFC008AED0E94EF0982E10E94EF0981E80E94CF
:100D0C00EF098FE90E94EF0989ED0E94EF0982E259
:100D1C000E94EF0921C084E10E94EF0980E20E9449
:100D2C00EF0980E00E94EF0981EA0E94EF0988EC4C
:100D3C000E94EF098AED0E94EF0982E10E94EF09FF
:100D4C0081E80E94EF098FEC0E94EF0989ED0E9467
:100D5C00EF0981EF0E94EF098BED0E94EF0980E40F
:100D6C000E94EF0984EA0E94EF0986EA0E94EF09CB
:0A0D7C008FEA0E94EF09CF9108955D
:100D86006F927F928F929F92AF92BF92CF92DF9295
:100D9600EF92FF920F931F93CF93DF93CDB7DEB7FA
:100DA6006197CDBFDEBF82E00E94EF0980E10E941D
:100DB600EF0980E40E94EF090F2EFDE0AF2EFCE262
:100DC600BF2EF02D0F2EFDE08F2EF8E29F2EF02D78
:100DD6000F2EF7EB6F2EF02D8E010E5E1F4F6894CF
:100DE600772476F8862D0E94EF0982E00E94EF09AB
:100DF60080E10E94EF09750180E8E81AF10879821E
:100E0600FE013296D7018D918193E017F107D9F74C
:100E160021E1AE014F5F5F4F60E08CE30E94490A1B
:100E26000E941D0B8130E1F7CDBFDEBF80E1E80EE9
:100E3600F11CEA14FB0419F76A9480E8A81AB108B1
:100E4600A814B90479F66196CDBFDEBFDF91CF91C4
:100E56001F910F91FF90EF90DF90CF90BF90AF90D2
:0A0E66009F908F907F906F90089589
:100E70008091A804982F9F779093A02F20919F2F67
:100E8000921308C090919C2F9F5F90939C2F9B3052
:100E900020F455C010929C2F52C010929C2F83FDBD
:100EA00022C090919D2F9923F1F081E080939B2F98
:100EB0008091A12F882331F080E28093A6041092C4
:100EC000A12F06C080E28093A50481E08093A12F2A
:100ED0008091A42F8F5F883018F48093A42F26C0B0
:100EE0001092A42F23C082FD21C080919E2F8823C1
:100EF000E9F081E080939B2F8091A12F882331F02E
:100F000080E28093A6041092A12F06C080E2809315
:100F1000A50481E08093A12F8091A42F815018F027
:100F20008093A42F03C087E08093A42F8091A02FEB
:100F3000982F947090939E2F887080939D2F80910E
:100F4000A02F80939F2F81E090E00E941E0A0895B9
:100F50008F929F92AF92BF92CF92DF92EF92FF92C9
:100F6000CF93DF93EC01688179818A819B81611540
:100F700071058105910521F464E279ED8BE597E037
:100F80002DE133EF41E050E00E94070A49015A0188
:100F90009B01AC01A7EAB1E40E94D90A6B017C0174
:100FA000ACEEB4EFA50194010E94FF0ADC01CB0175
:100FB0008C0D9D1DAE1DBF1DB7FF03C00197A1097C
:100FC000B04888839983AA83BB839F77DF91CF91B1
:100FD000FF90EF90DF90CF90BF90AF909F908F9059
:100FE00008950E94A80708958DE89FE20E94A8072F
:100FF0000895A0E0B0E080938D2F90938E2FA09362
:081000008F2FB093902F08958B
:1010080088230CF454C0603408F051C04130E9F032
:1010180018F04230A1F10895962F969596959695D9
:10102800E82FF0E080E8989FE00DF11D1124E35FC0
:10103800F74D677081E090E002C0880F991F6A95AC
:10104800E2F79081892B80830895962F969596953F
:101058009695E82FF0E080E8989FE00DF11D1124A7
:10106800E35FF74D677081E090E002C0880F991F39
:101078006A95E2F780959081892380830895962F59
:10108800969596959695E82FF0E080E8989FE00D64
:10109800F11D1124E35FF74D677081E090E002C015
:1010A800880F991F6A95E2F79081892780830895B0
:1010B8000E941A0B809307289091052891110DC062
:1010C80090E8980F903730F48093082881E0809357
:1010D800052808951092052808959130F1F490910B
:1010E800082820E8290F203148F48093062880E258
:1010F8008093A50482E08093052808959059903143
:1011080048F48093062880E28093A60482E08093C6
:1011180005280895109205280895923039F480938F
:0E11280004281092052881E08093A52F0895D9
:1011360082E00E94B709789481E00E944E0688E515
:1011460095E00E940B0B6FE082E00E94150B83E096
:101156000E94100B0E94C30624E588E594E1215005
:1011660080409040E1F700C000C00E945E0A0E94E5
:10117600C3060E94340A61E080E00E94D8080E94FB
:10118600CC0A81E090E00E94AD0AE0EAF4E080E259
:101196008183858384E0828388E0828B8283838B4C
:0A11A6000E9447050E94CC03FDCF14
:1011B000813061F4E0EEF5E0828181608283E0E0DD
:1011C000F4E080E1818380E282830AC0E0EEF5E012
:1011D00082818283E0E0F4E081E0818382E08283A7
:1011E0008BEA91E08093080890930908662319F030
:1011F00080E880930508E0E0F8E0868180648683DB
:08120000868180688683089551
:101208000F931F93CF938C01C62F80E090E00E942C
:101218009A0ACB010E94F907C150A9F00E94F4076D
:101228002C2F30E0B9016F5F7F4F0E94720AD801FE
:10123800A80FB11DF801E20FF31F80819C919083E4
:0E1248008C93C15059F7CF911F910F910895CB
:101256001F920F920FB60F9211242F933F934F9325
:101266005F936F937F938F939F93AF93BF93EF9308
:10127600FF930E945C08FF91EF91BF91AF919F9100
:101286008F917F916F915F914F913F912F910F9029
:081296000FBE0F901F90189588
:10129E001F920F920FB60F9211242F933F934F93DD
:1012AE005F936F937F938F939F93AF93BF93EF93C0
:1012BE00FF930E943807FF91EF91BF91AF919F91DD
:1012CE008F917F916F915F914F913F912F910F90E1
:0812DE000FBE0F901F90189540
:1012E600EF92FF920F931F93CF93DF938C017C01B4
:1012F600C0E0D0E006C0F70181917F010E94B002F4
:101306002196F80101900020E9F73197E01BF10BD7
:10131600CE17DF0780F3DF91CF911F910F91FF90DA
:04132600EF900895A7
:10132A00A1E21A2EAA1BBB1BFD010DC0AA1FBB1FDF
:10133A00EE1FFF1FA217B307E407F50720F0A21B51
:10134A00B30BE40BF50B661F771F881F991F1A94BE
:10135A0069F760957095809590959B01AC01BD01E8
:04136A00CF01089512
:10136E00E0EAF8E016829481986094839381937FEB
:10137E0093839381916C9383958191609583823051
:10138E0031F4E0EEF5E08381806283830895E0EE30
:08139E00F5E0838183830895CB
:1013A600FF920F931F93CF93DF93D82F162FC42F3F
:1013B600F22E481710F0D42FC82F202F4F2D612F53
:1013C6008C2F0E94EC0ACF5FDC17B8F7DF91CF9124
:0813D6001F910F91FF90089593
:1013DE00CF93DF9300D0CDB7DEB719828A8322E098
:1013EE00AE014F5F5F4F60E08CE30E94490A0E949E
:1013FE001D0B8130E1F70F900F90DF91CF91089583
:10140E00052E97FB1EF400940E94F40A57FD07D098
:10141E000E94950907FC03D04EF40C94F40A5095E3
:0E142E004095309521953F4F4F4F5F4F0895E9
:10143C000F931F93CF93DF93EC0100E411E082E054
:10144C00F80183830E94040B8C0F9D1FF801848785
:0C145C009587DF91CF911F910F910895AB
:10146800E0E2F4E080818D7F8083808181608083E9
:10147800E0E6F8E084E790E08087918786818064E1
:0A14880086838681806886830895BC
:101492009091962F992381F01092962F1092952F6A
:1014A2004093912F5093922F1092932F2093942F29
:0A14B200880F682B6093A7080895C7
:1014BC00CF93DF93D0E00BC041E06D2F8C2F0E94B7
:1014CC000408CF5FC438C1F7DF5FD03411F0C0E03F
:0814DC00F3CFDF91CF910895D9
:1014E40097FB072E16F4009407D077FD09D00E94CD
:1014F400860A07FC05D03EF4909581959F4F089588
:08150400709561957F4F089579
:10150C00AA1BBB1B51E107C0AA1FBB1FA617B7071D
:10151C0010F0A61BB70B881F991F5A95A9F7809539
:08152C009095BC01CD0108956A
:10153400FC010FB6F8946091092870910A288091F3
:101544000B2890910C280FBE309721F06083718393
:06155400828393830895D9
:10155A00CF93DF93EC010E94040B8C0F9D1FE0E4F4
:10156A00F1E08487958782E08283DF91CF910895A5
:10157A00A29FB001B39FC001A39F700D811D1124CA
:0E158A00911DB29F700D811D1124911D0895B9
:10159800E0E4F1E081818111FDCFE0E4F1E0178220
:0A15A80081E0858389E280830895C5
:1015B2000E94BD0AA59F900DB49F900DA49F800D1F
:0615C200911D11240895A3
:1015C800E0E0F8E0948195FFFDCF8093020808954C
:1015D8000F93022F242F482F0E94CE050F910895B4
:1015E80090958095709561957F4F8F4F9F4F089587
:1015F800B7FF0C94D90A0E94D90A821B930B08954D
:0E160800F894809148019091490178940895DA
:0A16160080930228909303280895A2
:0A1620008093992F8093982F08956E
:0A162A008093012860939A2F089521
:06163400809100080895FA
:06163A008091952F089538
:041640000C94000006
:10164400840004000080000C0000800008000000FA
:10165400000800000010000000001000000000104E
:10166400000000200000000003FF0000080000FF4D
:101674000000000000000000000000000000000066
:101684000000000F1F1F1F3F7F7FFFFFFFFFFFFFB3
:10169400FFFFFFFFFFFFFFFFFFFFFFFFFFFFFFFF56
:1016A400FFFFFFFFFFFFFFFFFFFFFFFFFFFFFFFF46
:1016B400FFFFFFFFFFFFFFFFFFFFFFFFFFFFFFFF36
:1016C40000080000080008000008000800000001ED
:1016D40000001001100000000100000000000000E4
:1016E4000002000000000000783F0000000000013C
:1016F40000000000000000000000000000000000E6
:10170400000000000000000000000001070F3FFF80
:10171400FFFFFFFFFFFFFFFFFFFFFFFFFFFFFFFFD5
:10172400FFFFFFFFFFFFFFFFFFFFFFFFFFFFFFFFC5
:10173400FFFFFFFFFFFFFFFFFFFFFFFFFFFFFFFFB5
:101744000000000000000000000000000000000095
:101754000000000000C08000000000000000000045
:10176400000080000000000000000000000000E015
:10177400FCFEFEFEFFFFFFFEFEFFFFFEFFFEFEFF80
:10178400FFFFFFFFFFFEF000000000000000000369
:10179400FFFFFFFFFFFFFFFFFFFFFFFFFFFFFFFF55
:1017A400FFFFFFFFFFFFFFFFFFFFFFFFFFFFFFFF45
:1017B400FFFFFFFFFFFFFFFFFFFFFFFFFFFFFFFF35
:1017C4000000303000000030000000202000002025
:1017D4003000000000FF0F0000000000FF000000C8
:1017E4000000FF0000000000FF1F000000C084078D
:1017F400070F0F8F9F1FFFFFFFFF9F0F0F2F2F3F1D
:101804003F3F7FFFFFFFFFFBE60600000000C0FC38
:10181400FFFFFFFFFFFFFFFFFFFFFFFFFFFFFFFFD4
:10182400FFFFFFFFFFFFFFFFFFFFFFFFFFFFFFFFC4
:10183400FFFFFFFFFFFFFFFFFFFFFFFFFFFFFFFFB4
:1018440000003020000020200000002020000020A4
:101854002000000202FF000000000C0CF300000056
:10186400080CFF0000000008FF03000000FFFFFF5A
:10187400FFFFFFFF7FFFFFFFFFFFFFFFFFFFFFFFF4
:10188400FFFFFFFFFFFFFFFFFFF0F0E6FFFDFCFEA1
:10189400FFFFFFFFFFFFFFFFFFFFFFFFFFFFFFFF54
:1018A400FFFFFFFFFFFFFFFFFFFFFFFFFFFFFFFF44
:1018B400FFFFFFFFFFFFFFFFFFFFFFFFFFFFFFFF34
:1018C4000000300000002030000000300000002044
:1018D4002000000000FF0000000002865900000004
:1018E4000000FF0000000000FF000000004F3FFF69
:1018F400FFEFD79398989C949E9E97BFB7FFFFFFE6
:10190400FFFFFFFF7F7F7F1FF83F0F0703010000EA
:101914000000010101010101030FFFFFFFFFFFFFB1
:10192400FFFFFFFFFFFFFFFFFFFFFFFFFFFFFFFFC3
:10193400FFFFFFFFFFFFFFFFFFFFFFFFFFFFFFFFB3
:101944000000000000000000000000000000000093
:1019540000000200003F04000000003D0000000001
:1019640000003F00000000001F0000000000000015
:101974001F7FFFFFFFF3F3F3F3FBFFFFFF7F7F1FE7
:1019840083600180C0E0F8F8FB0000000000000163
:10199400000000000000000000000FFFFFFFFFFF39
:1019A400FFFFFFFFFFFFFFFFFFFFFFFFFFFFFFFF43
:1019B400FFFFFFFFFFFFFFFFFFFFFFFFFFFFFFFF33
:1019C4000000000000000000000000000000E080B3
:1019D4000000000020E00000000000E080000000A3
:1019E4000020C00000000000E00000000000200013
:1019F40000C0E0C081818181C1C1C1E1E4F2F3F999
:101A0400FCFEFFFFFFFFFFFFFFFFFCF8F0200000DC
:101A14000000000000000000000080FFFFFFFFFF47
:101A2400FFFFFFFFFFFFFFFFFFFFFFFFFFFFFFFFC2
:101A3400FFFFFFFFFFFFFFFFFFFFFFFFFFFFFFFFB2
:101A440000070209040B060D080F0A110C130E15EA
:101A540010171219141B161D181F1A211C231E25DA
:101A640020272229242B262D282F2A312C332E35CA
:101A740030373239343B363D383F3A413C433E45BA
:101A840040474249444B464D484F4A514C534E55AA
:101A940050575259545B565D585F5A615C635E659A
:101AA40060676269646B666D686F6A716C736E758A
:101AB40070777279747B767D787F00000000000077
:101AC400000102030405060708090A0B00010203CA
:101AD4000405060708090A0B0C0D0E0F101112134A
:101AE4001415161718191A1B1C1D1E1F202122233A
:101AF4002425262728292A2B2C2D2E2F303132332A
:101B04003435363738393A3B3C3D3E3F4041424319
:101B14004445464748494A4B4C4D4E4F5051525309
:101B24005455565758595A5B5C5D5E5F60616263F9
:101B34006465666768696A6B6C6D6E6F70717273E9
:101B44000C0D0E0F101112131415161718191A1B59
:101B54001C1D1E1F202122232425262728292A2B49
:101B64002C2D2E2F303132333435363738393A3B39
:101B74003C3D3E3F404142434445464748494A4B29
:101B84004C4D4E4F505152535455565758595A5B19
:101B94005C5D5E5F606162636465666768696A6B09
:101BA4006C6D6E6F707172737475767778797A7BF9
:101BB4007C7D7E7F000102030405060708090A0BE9
:101BC4000000000000000000000000000000000011
:101BD400000000000015161718191A1B1C1D1E1FE3
:101BE400202122232425262728292A2B2C2D2E2F79
:101BF400303132333435363738393A3B3C3D3E3F69
:101C0400404142434445464748494A4B4C4D4E4F58
:101C1400505152535455565758595A5B5C5D5E5F48
:101C2400606162636465666768696A6B6C00000082
:101C340000000000000000000000000000000000A0
:101C4400000102030405060708090A0B0C0D0E0F18
:101C5400101112131415161718191A1B1C1D1E1F08
:101C6400202122232425262728292A2B2C2D2E2FF8
:101C7400303132333435363738393A3B3C3D3E3FE8
:101C8400404142434445464748494A4B4C4D4E4FD8
:101C9400505152535455565758595A5B5C5D5E5FC8
:101CA400606162636465666768696A6B6C6D6E6FB8
:101CB400707172737475767778797A7B7C7D7E7FA8
:101CC400000102030405060708090A0B0C0D0E0F98
:101CD400101112131415161718191A1B1C1D1E1F88
:101CE400202122232425262728292A2B2C2D2E2F78
:101CF400303132333435363738393A3B3C3D3E3D6A
:101D04003C3B3A393837363534333231302F2E2D87
:101D14002C2B2A292827262524232221201F1E1D77
:101D24001C1B1A191817161514131211100F0E0D67
:101D34000C0B0A0908070605040302010000000051
:101D44000000007F7E7D7C7B7A797877767574736A
:101D54007271706F6E6D6C6B6A69686766656463D7
:101D64006261605F5E5D5C5B5A59585756555453C7
:101D74005251504F4E4D4C4B4A49484746454443B7
:101D84004241403F3E3D3C3B3A39383736353433A7
:101D94003231302F2E2D2C2B2A2928272625242397
:101DA4002221201F1E1D1C1B1A1918171615141387
:101DB4001211100F0E0D0C0B0A0908070605040377
:041DC400010000001A
:011DC8000119
:011DC9000118
:011DCA000117
:00000001FF
