:100000000C948E000C9429050C9429050C9478030B
:100010000C9429050C9429050C9429050C942905A8
:100020000C9429050C9429050C9429050C94290598
:100030000C9429050C9429050C9429050C9469014C
:100040000C9429050C9454030C9429050C9429054F
:100050000C9429050C9429050C9429050C94290568
:100060000C9429050C9429050C9429050C94290558
:100070000C9429050C9429050C9429050C94290548
:100080000C9429050C9429050C9429050C94290538
:100090000C9429050C9429050C9429050C94290528
:1000A0002A0F2A10802A102A11802A0D2A0F802A4E
:1000B000112A12802A122A130001732809288900A4
:1000C0000A5628892909000AD629092989000B56C8
:1000D00029892A09000BD62A132A14802A142A15E2
:1000E000802A152A16802A162A17802A172A18808D
:1000F0002A182A19802A192A1A802A1A2A1B802AC1
:100100001B2A1C000C5A2A1C2A1D80280028058046
:100110002A092A0D000C56280528098011241FBE23
:10012000CFEFCDBFDFE3DEBFE0EAF0E041E017C094
:10013000B591A59135912591059107FD0CC095913B
:100140008591EF01F92FE82F05900D92A217B307C3
:10015000D9F7FE0104C01D92A217B307E1F7EC31F5
:10016000F40731F70E94E0030C94B600F894FFCF37
:030170000D0A0075
:01017300018A
:100174000F931F93CF93DF93CDB7DEB7C855D10943
:10018400CDBFDEBF80911C2A882309F497C010924A
:100194001C2A80911B2A81110DC0809104280E9481
:1001A400FF04809102280E94FF04809100280E948D
:1001B400FF0484C0813089F4809104280E94FF04E4
:1001C400E0910228F0E0E757F64D80810E94FF0499
:1001D400809100280E94FF0471C0823089F48091CC
:1001E40004280E94FF04E0910228F0E0E75FF64D46
:1001F40080810E94FF04809100280E94FF045EC059
:100204008330E9F480911A2A811108C060E889E8F2
:1002140098E20E942D0381E080931A2A8091042899
:100224000E94FF04E0910228F0E0E757F74D808137
:100234000E94FF04809100280E94FF043FC0843084
:1002440089F58091192A81111CC08E010F5F1F4FFF
:10025400F80185E181938F5F8D36E1F768E5CE0182
:1002640001960E942D03EEE1F8E226E738E2D80178
:100274008D918D0181932E173F07C9F781E08093FB
:10028400192A809104280E94FF04E0910228F0E0DA
:10029400E75FF74D80810E94FF04809100280E944F
:1002A400FF040CC0809104280E94FF04809102285E
:1002B4000E94FF04809100280E94FF04C85ADF4F67
:0E02C400CDBFDEBFDF91CF911F910F91089546
:1002D2001F920F920FB60F9211248F939F93EF9359
:1002E200FF938091A50883FF0BC0E0EAF8E09581B7
:1002F2009C64958392E09093112A91E09093122A44
:1003020082FF0CC0E0EAF8E085818C64858383E09B
:100312008093112A81E08093122A5CC086FF28C054
:1003220084FF0AC083E08093A40884E08093112AAA
:1003320081E08093122A4EC080910F2A9091102A58
:10034200891768F4E0910D2AF0910E2AE80FF11D49
:1003520090819093A8088F5F80930F2A3BC083E01F
:100362008093A40881E08093112A8093122A32C0DC
:10037200882354F584FF09C083E08093A40884E0B5
:100382008093112A81E08093122A80910F2AE091B2
:100392000D2AF0910E2AE80FF11D9091A808908382
:1003A2008F5F80930F2A9091102A891720F482E0A0
:1003B2008093A4080FC087E08093A40881E0809313
:1003C200112A8093122A06C085E08093112A81E0C7
:1003D2008093122AFF91EF919F918F910F900FBE00
:0603E2000F901F9018951A
:1003E8008091A804982F9F779093172A2091162A16
:1003F800921308C09091132A9F5F9093132A9B3001
:1004080020F457C01092132A54C01092132A83FD67
:100418001FC09091142A9923D9F08091182A882313
:1004280031F080E28093A6041092182A06C080E278
:100438008093A50481E08093182A80911B2A8F5FFE
:10044800853018F480931B2A23C010921B2A20C0E1
:1004580082FD1EC08091152A8823D1F08091182A28
:10046800882331F080E28093A6041092182A06C0EF
:1004780080E28093A50481E08093182A80911B2A4A
:10048800815018F080931B2A03C084E080931B2AB4
:1004980080911B2A0E94FB0380E791E40E949C0341
:1004A8008091172A982F94709093152A88708093BA
:1004B800142A8091172A8093162A81E090E00E94DE
:0404C8004704089548
:1004CC008F929F92AF92BF92CF92DF92EF92FF9258
:1004DC00CF93DF93EC01688179818A819B816115CF
:1004EC0071058105910521F464E279ED8BE597E0C6
:1004FC002DE133EF41E050E00E94300449015A01F4
:10050C009B01AC01A7EAB1E40E94E9046B017C01F8
:10051C00ACEEB4EFA50194010E941A05DC01CB01ED
:10052C008C0D9D1DAE1DBF1DB7FF03C00197A1090A
:10053C00B04888839983AA83BB839F77DF91CF913F
:10054C00FF90EF90DF90CF90BF90AF909F908F90E7
:10055C0008950E946602089589E09AE20E9466025C
:10056C000895A0E0B0E08093092A90930A2AA09302
:08057C000B2AB0930C2A08952C
:100584000E942605809303289091012891110DC0A3
:1005940090E8980F903730F48093042881E080939A
:1005A400012808951092012808959130F1F4909152
:1005B400042820E8290F203148F48093022880E29F
:1005C4008093A50482E08093012808959059903186
:1005D40048F48093022880E28093A60482E080930A
:1005E40001280895109201280895923039F48093D7
:0E05F40000281092012881E080931C2A0895AF
:10060200813061F4E0EEF5E0828181608283E0E096
:10061200F4E080E1818380E282830AC0E0EEF5E0CB
:1006220082818283E0E0F4E081E0818382E0828360
:100632008BEA91E08093080890930908662319F0E9
:1006420080E880930508E0E0F8E086818064868394
:0806520086818068868308950B
:10065A000F931F93CF938C01C62F80E090E00E94E6
:10066A009A04CB010E94B702C150A9F00E94B202BB
:10067A002C2F30E0B9016F5F7F4F0E947204D801BE
:10068A00A80FB11DF801E20FF31F80819C9190839E
:0E069A008C93C15059F7CF911F910F91089585
:1006A8001F920F920FB60F9211242F933F934F93DF
:1006B8005F936F937F938F939F93AF93BF93EF93C2
:1006C800FF930E94C202FF91EF91BF91AF919F915A
:1006D8008F917F916F915F914F913F912F910F90E3
:0806E8000FBE0F901F90189542
:1006F0001F920F920FB60F9211242F933F934F9397
:100700005F936F937F938F939F93AF93BF93EF9379
:10071000FF930E94F401FF91EF91BF91AF919F91E0
:100720008F917F916F915F914F913F912F910F909A
:080730000FBE0F901F901895F9
:10073800EF92FF920F931F93CF93DF938C017C016D
:10074800C0E0D0E006C0F70181917F010E94070553
:100758002196F80101900020E9F73197E01BF10B91
:10076800CE17DF0780F3DF91CF911F910F91FF9094
:04077800EF90089561
:10077C00A1E21A2EAA1BBB1BFD010DC0AA1FBB1F99
:10078C00EE1FFF1FA217B307E407F50720F0A21B0B
:10079C00B30BE40BF50B661F771F881F991F1A9478
:1007AC0069F760957095809590959B01AC01BD01A2
:0407BC00CF010895CC
:1007C0000E945D04789461E080E00E9401030E9431
:1007D000DC0481E090E00E94AD04E0EAF4E080E215
:1007E0008183858384E0828388E0828B8283838B0C
:0607F0000E94BA00FDCFDB
:1007F600CF93DF9300D000D0CDB7DEB719821A822F
:100806001B821C824AE0BE016F5F7F4F90E00E9410
:10081600F404CE0101960E949C032496CDBFDEBF50
:06082600DF91CF9108955F
:10082C00BB27FB015527AA27880F991FAA1FA417BE
:10083C0010F0A41B83955051B9F7A05DAA3308F0B2
:10084C00A95DA193009779F7B111B1931192CB01E6
:04085C000C94BD0437
:10086000052E97FB1EF400940E940F0557FD07D03C
:100870000E94BE0307FC03D04EF40C940F05509564
:0E0880004095309521953F4F4F4F5F4F0895A3
:10088E000F931F93CF93DF93EC0100E411E082E00E
:10089E00F80183830E941F058C0F9D1FF80184872A
:0C08AE009587DF91CF911F910F91089565
:1008BA00E0E2F4E080818D7F8083808181608083A3
:1008CA00E0E6F8E084E790E080879187868180649B
:0A08DA008683868180688683089576
:1008E40097FB072E16F4009407D077FD09D00E94D9
:1008F400860407FC05D03EF4909581959F4F08959A
:08090400709561957F4F089585
:10090C00AA1BBB1B51E107C0AA1FBB1FA617B70729
:10091C0010F0A61BB70B881F991F5A95A9F7809545
:08092C009095BC01CD01089576
:10093400FC010FB6F8946091052870910628809107
:100944000728909108280FBE309721F060837183A7
:06095400828393830895E5
:10095A00CF93DF93EC010E941F058C0F9D1FE0E4EB
:10096A00F1E08487958782E08283DF91CF910895B1
:10097A00DC01FC01672F71917723E1F7329704C0FC
:10098A007C916D9370836291AE17BF07C8F3089587
:10099A00A29FB001B39FC001A39F700D811D1124B6
:0E09AA00911DB29F700D811D1124911D0895A5
:1009B800E0E4F1E081818111FDCFE0E4F1E017820C
:0A09C80081E0858389E280830895B1
:1009D2000E94CD04A59F900DB49F900DA49F800D01
:0609E200911D112408958F
:1009E800BB274A3031F4992322F4BDE290958195D2
:0609F8009F4F0C94170450
:1009FE00E0E0F8E0948195FFFDCF80930208089522
:100A0E00E0E6F8E0948195FFFDCF809362080895AB
:100A1E0090958095709561957F4F8F4F9F4F08955C
:100A2E00B7FF0C94E9040E94E904821B930B08950E
:0E0A3E00F894809148019091490178940895B0
:060A4C00809100080895EE
:040A52000C94000000
:100A56000000000000000000000000000000000090
:100A6600000000000015161718191A1B1C1D1E1F62
:100A7600202122232425262728292A2B2C2D2E2FF8
:100A8600303132333435363738393A3B3C3D3E3FE8
:100A9600404142434445464748494A4B4C4D4E4FD8
:100AA600505152535455565758595A5B5C5D5E5FC8
:100AB600606162636465666768696A6B6C00000002
:100AC6000000000000000000000000000000000020
:100AD600000102030405060708090A0B0C0D0E0F98
:100AE600101112131415161718191A1B1C1D1E1F88
:100AF600202122232425262728292A2B2C2D2E2F78
:100B0600303132333435363738393A3B3C3D3E3F67
:100B1600404142434445464748494A4B4C4D4E4F57
:100B2600505152535455565758595A5B5C5D5E5F47
:100B3600606162636465666768696A6B6C6D6E6F37
:100B4600707172737475767778797A7B7C7D7E7F27
:100B5600000102030405060708090A0B0C0D0E0F17
:100B6600101112131415161718191A1B1C1D1E1F07
:100B7600202122232425262728292A2B2C2D2E2FF7
:100B8600303132333435363738393A3B3C3D3E3DE9
:100B96003C3B3A393837363534333231302F2E2D07
:100BA6002C2B2A292827262524232221201F1E1DF7
:100BB6001C1B1A191817161514131211100F0E0DE7
:100BC6000C0B0A09080706050403020100000000D1
:100BD6000000007F7E7D7C7B7A79787776757473EA
:100BE6007271706F6E6D6C6B6A6968676665646357
:100BF6006261605F5E5D5C5B5A5958575655545347
:100C06005251504F4E4D4C4B4A4948474645444336
:100C16004241403F3E3D3C3B3A3938373635343326
:100C26003231302F2E2D2C2B2A2928272625242316
:100C36002221201F1E1D1C1B1A1918171615141306
:100C46001211100F0E0D0C0B0A09080706050403F6
:040C56000100000099
:010C5A000198
:00000001FF
