:020000040000fa
:10000000f87f002079190000cf140000cf14000001
:1000100000000000000000000000000000000000e0
:10002000000000000000000000000000cf140000ed
:100030000000000000000000cf140000cf140000fa
:10004000cf140000cf140000cf140000cf14000024
:10005000cf140000cf140000cf140000cf14000014
:10006000cf140000cf140000cf140000cf14000004
:10007000cf140000cf140000cf140000cf140000f4
:10008000cf140000cf140000cf140000cf140000e4
:10009000cf140000cf140000cf140000cf140000d4
:1000a000cf140000cf140000cf140000cf140000c4
:020000040000fa
:1000b000f8b5c046f8bc08bc9e467047f51900006c
:1000c000f8b5c046f8bc08bc9e467047cd19000084
:020000040000fa
:0800d0001c13000001000000f8
:020000040000fa
:1000d800f7b50d0009036c00ed0f0095490a450faf
:1000e80029431d035e00c700d80f6b0a550f2b4329
:1000f800c14d640d760dd200ae4203d11d00844679
:10010800154302d101254540ac46009da01bac45d6
:1001180000d036e1002861dd002e25d11d001543f1
:1001280000d196e2461e002e19d1ba18ba42a4414f
:10013800c91864420919170001240b0200d4bee053
:10014800ad4b01349c4200d180e2ac487b080140b1
:10015800012007401f43c80707434908afe0a64de1
:10016800a84209d1a44caae0a34dac4200d1a6e014
:10017800802506002d042b43382e2adc1f2e17dc81
:1001880020201d00801b8540ac4615000190f540dd
:10019800604605430198f3408240501e8241154352
:1001a800ed195b18bd428941494259182f00c4e72f
:1001b80030001d002038c5400020202e03d04030dc
:1001c800861bb34018000243501e8241154300238a
:1001d800e6e71a4315006a1e9541f8e7002850d053
:1001e800002c14d10c003c4300d128e2c443002c5d
:1001f80007d1bf189742a441c918644209193400ad
:100208009be77d48864209d119001700aae77a4c76
:10021800a642f9d04442802000040143382c2bdc4c
:100228001f2c17dc2025281b01900800019de140a8
:10023800a840844638006546e0402843019daf4009
:100248007d1eaf413843871897429241c9185242e0
:100258008918d4e720000d002038c5402800002563
:10026800202c03d040352c1ba1400d002f437d1eb0
:10027800af4138430021e6e70f433800471eb84135
:10028800f8e7661c75056d0d012d00dd69e00800b5
:100298003843002c49d1002800d1d3e1180010437d
:1002a8000dd0ba18ba42b641c918802376428919c6
:1002b8001b041700194202d0504b013419407b0728
:1002c80009d00f233b40042b05d03b1dbb42bf4147
:1002d8007f42c9191f000b0206d5474b01349c42c7
:1002e80000d1c3e1454b1940434b4807ff08384349
:1002f800c9089c4206d103000b4300d1b9e1802311
:100308001b031943002709033b0d1b05090b194360
:100318003b4b6405194064080c43009b6400d907f3
:1003280064080c43210003b0f0bd002800d16be73e
:100338001800104300d115e74807ff08074380203d
:10034800c9080003014207d0dc08044204d1d208de
:100358005b0713431f002100780fc9000143ff000a
:1003680000e7254ca64200d16fe1ba18c918ba4275
:100378009b415b42cb18df075208174359083400ea
:100388009de700285ddd002e3cd11d00154300d1fe
:100398005fe1461e002e0ed1ba1a9742bf41c91a14
:1003a8007f42c91b012417000b0200d487e74902ca
:1003b8004d0a3e00f9e0104da84200d1d2e6382e91
:1003c8003adc1f2e27dc20201d00801b8540ac4610
:1003d80015000190f540604605430198f3408240be
:1003e800501e824115437d1bcb1aaf4289414942b9
:1003f800591a2f00d8e7c046ff070000ffff7fff0c
:10040800ffff0f809c4dac4200d158e780252d049a
:100418002b430600d3e730001d002038c5400020dc
:10042800202e03d04030861bb34018000243501ed4
:10043800824115430023d6e71a4315006a1e9541e9
:10044800f8e700284dd0002c17d10c003c4300d110
:1004580001e1c443002c09d1d71bba429241591a71
:1004680063465242891a340000939de782488642c7
:100478000ad119001700804c45e07f4ca642f8d0fd
:100488004442802000040143382c25dc1f2c11dc59
:100498002025281b00900800009de140a840050089
:1004a8003800e0402843009daf407d1eaf413843ef
:1004b800171ad2e720000d002038c5402800002573
:1004c800202c03d040352c1ba1400d002f437d1e4e
:1004d800af4138430021ebe70f433800471eb841ce
:1004e800f8e7601c4005400d01284cdc18000d00a1
:1004f80010433d43002c24d1002d07d1071e00d105
:10050800ade01900170063460093d8e6002800d133
:10051800d5e6bd1aaf42b641c81a7642801b80267e
:100528003604304206d0d71bba429241591a524279
:10053800891ae8e72f00074300d190e001002f0057
:10054800bde6002d07d1071e00d18be019006346d8
:100558001700009306e6002800d103e64807ff08c5
:1005680007438020c9080003014200d1f4e6dc08f3
:10057800044200d0f0e6d2085b0713431f0063462d
:1005880021000093e8e6be1ab7428041cd1a4042e6
:100598002d1a8020000405422dd0d61bb242ad4151
:1005a800591a63466d424d1b0093002d29d028002f
:1005b80001f090fa0300083b1f2b27dc20223100b2
:1005c8009e40d21a9d40d14037000d439c4232dcf8
:1005d8001c1b661c1f2e1edc20233a0029009b1bb7
:1005e8009940f2409f400a43791e8f412900f1400b
:1005f8001743002463e637002f43d6d139003c0067
:100608002ee0300001f066fa2030d3e735002838b4
:1006180085400027dae72a001f3ce2400023202e0d
:1006280003d040339e1b2b00b3401f437b1e9f41ca
:1006380000211743dde71149e41a29403fe6190074
:1006480017009ce61900170039e60b4c00210f0033
:1006580035e6040033e619001700340053e7390083
:1006680000972ce68021044cc903f9e700210f000c
:100678003ae6190046e6c046ff070000ffff7fff85
:10068800f0b58bb001920593ca0f0c034b0006001e
:10069800240b5b0d0492039245d0c64a934265d061
:1006a8008022410f12040a43e4001443c24ac500e1
:1006b8009b1800270293059b019a1e035800db0f25
:1006c800360b400d059360d0ba4b984200d180e0bc
:1006d8008023520f1b041343f6001e43b64a019ba6
:1006e8008218db0094460022059804994140019144
:1006f8000299b8006144104307910138013106910d
:100708000e2879d801f070fa740074007b01710129
:100718007101bc017b017101bc0171017b016f0199
:100728006f016f0164012500054326d0002c13d00a
:10073800200001f0cff901000b391c2910dc1d2322
:1007480002005b1a31003500083a9440d9409540c0
:100758000c439a4b1b1aace701f0bcf92030eae7ce
:1007680003003400283b9c400025f2e705002543a0
:1007780007d00500029303279de72c000295012767
:1007880099e72c000293022795e7019b334327d072
:10079800002e13d0300001f09df901000b391c29ff
:1007a80011dc1d2302005b1a0199083ad940019b0c
:1007b800964093400e43814a121a93e7100001f0c5
:1007c80089f92030e9e70300019e283b9e40002379
:1007d800f1e7019b334307d013008446032283e7e4
:1007e8001e009c4601227fe71e00844602227be70a
:1007f80034001d001700f8e0190c9bb20291190093
:100808002a0c514318008c46029f0299adb26843e6
:1008180051436f4304916744010cc91903908c45f7
:1008280006d9049f380080277f02bc4660440490a4
:10083800684680890f0c090409180991310cb6b271
:10084800039130003100bc46039f694350437d4308
:100858007a432d180f0c7d19a84202d98020400236
:100868001218280c82182d0489b205926a18089269
:100878001800089962468c46029f210ca4b2604376
:100888004b43674362449446029dff18020cd219f9
:100898004d43934202d980235b02ed183700130cb5
:1008a8005b190293039b67434e435c435943a41966
:1008b8003b0c120480b21c191018a64202d98023de
:1008c8005b02c918049b220463441e00089bbfb244
:1008d8009e42ad418619d2198642bf410298059bb6
:1008e80084466d42d218ab189c440393059b60461e
:1008f8009a429241039b5242ab429b415b427f42e8
:100908001a43029b3818240c1219b842bf419c455f
:10091800a4417f4264423c4314196418c30d640225
:100928001c43099b75021d43691e8d41f60d354315
:1009380040020543e30167d501226b0815401d43ba
:10094800e307d4401d43069b1d4a9b18002b5edd20
:100958006a0709d00f222a40042a05d02a1daa4274
:10096800ad416d4264191500e20106d58022d2001e
:100978009446144b1c40069b6344134a934200dd83
:100988008be06207ed081543e408002124030a0df3
:100998001205240b14430d4a5b0514405b082343de
:1009a800019a5b00d2075b081343280019000bb0bb
:1009b800f0bdc046ff07000001fcffff0dfcffff74
:1009c800ff030000fffffffefe070000ffff0f8090
:1009d80080221203144257d0164255d134001d000c
:1009e800059b039350e0049b0193022f55d0032fde
:1009f80051d0012fa7d100252c002b00c5e71d00e1
:100a0800059b34000193f5e6079b06939be70122bb
:100a1800d21a382aefdc1f2a20dc202321009b1a57
:100a280028009d409940d0406b1e9d41d440014311
:100a38000d436b0709d00f232b40042b05d02b1d2a
:100a4800ab42ad416d4264191d0080231b04234055
:100a580000d196e700240123250096e71f2149428b
:100a6800cb1a2100d9400023202a03d040339a1af8
:100a7800230093401d436b1e9d4100240d43d8e77e
:100a8800802400252403039580231b031c43039b18
:100a98000193034b79e7019ba3e700252c00f8e7b6
:100aa800ff070000b0b586b000af0200b9600f23a1
:100ab800fb181a700f23fb181b78012b00d9e0e0f4
:100ac800ba6813001b079b1a1b01704a94466344bb
:100ad8003b6000237b6039687a680b001b0c1000b0
:100ae80005041d430b001c04684a0023200029004c
:100af80000f0b0ff03000c003b617c610f23fb1882
:100b08001b78002b02d0012b4bd097e0604b1022b2
:100b18009a605f4a5e494423cb5cdbb202210b43f7
:100b2800d9b24423d1545a4a59494423cb5cdbb245
:100b380001210b43d9b24423d154554932228b5c4d
:100b48000f208343181c032303438b54504b20224c
:100b58005a604f4a4e494523cb5cdbb202210b4316
:100b6800d9b24523d1544a4a49494523cb5cdbb223
:100b780004218b43d9b24523d154454a44494523de
:100b8800cb5cdbb201210b43d9b24523d154404998
:100b980032228b5c0f200340181c302303438b54f4
:100ba8004ce03b4b802252009a60394a384948232e
:100bb800cb5cdbb202210b43d9b24823d154344a6f
:100bc80033494823cb5cdbb201210b43d9b248231c
:100bd800d1542f4934228b5c0f208343181c0223e5
:100be80003438b542a4b802292005a60284a284992
:100bf8004923cb5cdbb202210b43d9b24923d15440
:100c0800234a23494923cb5cdbb204218b43d9b265
:100c18004923d1541e4a1e494923cb5cdbb201212a
:100c28000b43d9b24923d154194934228b5c0f2084
:100c38000340181c202303438b54c046154b154a08
:100c4800126a04210a431a62134b144a5a80c04696
:100c5800114b5b78dbb25bb2002bf9db104b114a0e
:100c68001a600f4bc02292025a600d4a3b697c6998
:100c78009bb293810a4b0a4a126802210a431a60fe
:100c880000e0c046bd4606b0b0bdc046006cdc0200
:100c98000044004100040040000c004014400000e3
:100ca800000800420400104080b582b000af020086
:100cb800fb1d1a70c046084b1b7edbb21a000123cd
:100cc8001340f8d0044afb1d1b789bb21385c0461d
:100cd800bd4602b080bdc0460008004280b584b061
:100ce80000af786039600f23fb1800221a700fe0fc
:100cf8000f23fb181b787a68d3181b781800fff7a6
:100d0800d3ff0f23fb181a780f23fb1801321a7030
:100d18000f23fb181a783b689a42e9d3c046bd46b0
:100d280004b080bd80b500af064b1b7edbb21a0055
:100d38000423134001d0012300e000231800bd461e
:100d480080bdc0460008004280b500af024b1b8d35
:100d58009bb21800bd4680bd00080042b0b584b003
:100d680000af7860786803001b071b1a1b013f4817
:100d780084466344190000231a000b0c15041d4314
:100d88000c043a4a00232000290000f063fe030007
:100d98000c00bb60fc60364b8022d2039a60344a58
:100da80033495623cb5cdbb202210b43d9b256231d
:100db800d1542f4a2e495623cb5cdbb201210b4379
:100dc800d9b25623d1542a493b228b5c0f20834346
:100dd800181c022303438b54254b802212045a60ab
:100de800234a23495723cb5cdbb202210b43d9b2f8
:100df8005723d1541e4a1e495723cb5cdbb204212a
:100e08008b43d9b25723d154194a19495723cb5c7c
:100e1800dbb201210b43d9b25723d15414493b22e9
:100e28008b5c0f200340181c202303438b54114b69
:100e3800104a126a20210a431a620f4b0f4a5a803d
:100e48000f4b104a1a600e4bc02292025a600c4a8d
:100e5800bb68fc689bb29381094b094a126802215e
:100e68000a431a60c046bd4604b0b0bd006cdc023f
:100e78000044004100040040000c004017400000fe
:100e8800001400420400104080b582b000af020098
:100e9800fb1d1a70c046084b1b7edbb21a000123eb
:100ea8001340f8d0044afb1d1b789bb21385c0463b
:100eb800bd4602b080bdc0460014004280b584b073
:100ec80000af78600023fb6009e07a68fb68d318fc
:100ed8001b781800fff7d8fffb680133fb607b68bd
:100ee800180000f09cfe0200fb689a42edd8c0464c
:100ef800bd4604b080bd80b58cb000af78600c23cf
:100f0800fb18180021231a00002100f080fe7b68de
:100f18000c22b9180222180000f08efe0c23fb18d0
:100f28001800fff7cbffc046bd460cb080bd80b5aa
:100f380086b000af78600c23fb1818000b231a004a
:100f4800002100f064fe7b680c22b9180a22180000
:100f580000f072fe0c23fb181800fff7afffc04625
:100f6800bd4606b080bd80b586b000af78600c2362
:100f7800fb18180009231a00002100f048fe7b68be
:100f88000c22b9181022180000f056fe064b180063
:100f9800fff794ff0c23fb181800fff78fffc046dc
:100fa800bd4606b080bdc046501c000080b500afed
:100fb8001b4b1b4a126a802149020a431a62194bc9
:100fc800194a5a80194b01221a70c046174b1b78d0
:100fd800dbb21a0001231340f8d1144b82225a7055
:100fe800124bc42292009a80104b07229a700f4924
:100ff8000f4b1b68db0e9bb21b029ab2e023db008f
:1010080013409ab20a4b1b68db0e9bb213439bb288
:101018000b85064b02221a70c046bd4680bdc046ed
:1010280000040040000c00401e4000000040004248
:101038002060800080b582b000af0200fb1d1a70ee
:101048000b4bfa1d12780b490a431a61084b02220e
:101058001a73c046064b1b7edbb21a0001231340ed
:10106800f8d0034b5b8b9bb21800bd4602b080bd25
:10107800004000420018000ff0b583b000af020036
:10108800fb1d1a70bb1d0a1c1a703a49fb1d1b7800
:10109800ba1d1278012090400200db01cb180433fe
:1010a8001a60344cfb1d1a78bb1d1b78314ef91d94
:1010b8000878b91d09784025c00130184118491928
:1010c8000978c9b202200143c8b24021d201a2184e
:1010d800d3185b18021c1a70264cfb1d1a78bb1d0e
:1010e8001b78244ef91d0878b91d09784025c001e0
:1010f8003018411849190978c9b201200143c8b20a
:101108004021d201a218d3185b18021c1a70bb1d0b
:101118001b780122134014d01649fb1d1b78ba1df9
:1011280012785208d2b210003022db01cb181b18fb
:101138009a1813780f210b40191c10230b431370b6
:1011480013e00c49fb1d1b78ba1d12785208d2b265
:1011580010003022db01cb181b189a1813780f21c6
:101168008b43191c01230b431370c046bd4603b0c3
:10117800f0bdc0460044004180b584b000af464a87
:1011880053681e218b4302210b435360c046434bd7
:10119800db68db06db0fdbb2002bf8d03f4b02220b
:1011a8009a84c0463d4bdb68db06db0fdbb2002bc5
:1011b800f8d00823fb183a4a1a800a23fb181a8821
:1011c800920a9202111c374a0a431a800b23fb1811
:1011d8001a7803210a40111c7c220a431a702f4beb
:1011e800ba68da62c0462d4bdb68db06db0fdbb280
:1011f800002bf8d02c4b1b68fb60fb689b0e9b06f2
:10120800fb60fb689b0efb60244afb68dbb2191c81
:101218003f230b40d9b2936a3f20014089022348fb
:1012280003400b439362c0461c4bdb68db06db0fb5
:10123800dbb2002bf8d01949184b9b8c9bb280224b
:10124800120113439bb28b8400237b607b1d1a78a9
:101258001f218a43111c07220a431a70bb1d1a78e2
:1012680001210a431a70bb1d1a7802210a431a7019
:10127800bb1d1a7808210a431a700d4b7a685a6008
:10128800c0460b4b5b781b06db0fdbb2002bf8d19b
:10129800c046bd4604b080bd004000410008004083
:1012a800b9050000ff01000024608000ff03ffff74
:1012b800000c004080b500affff75eff0b4b190034
:1012c8000020fff7effbe1235b021800fff746fd64
:1012d80009210120fff7d0fe08210120fff7ccfeed
:1012e800fff764fe00f004f8fce7c046127a00003d
:1012f800b0b500af0320fff79dfe03001b12dab262
:10130800304b1a700220fff795fe03001b12dab269
:101318002d4b1a702b4b1b780d3b180000f048fa28
:101328002a4a2b4bfff7acf903000c0018002100e8
:1013380000f0eefb0300dab2224b1a70224b1b7846
:101348000d3b180000f034fa204a214bfff798f9ba
:1013580003000c001800210000f0dafb0300dab2e9
:10136800194b1a70174b1a781a4b1b789a420ed0e1
:10137800b020fff799fc0120fff796fc114b1b7872
:101388001800fff791fc0f4b1a78124b1a700e4b8e
:101398001a78114b1b789a4210d0104b1800fff79f
:1013a8008dfd094b1b781800fff7c1fd0c4b180089
:1013b800fff784fd044b1a78074b1a70c046bd46e8
:1013c800b0bdc0462000002021000020e1155ee1ec
:1013d800155ee13f2200002023000020341c00009d
:1013e8003c1c0000f0b5060085b00f0015001c007d
:1013f8008b4265d801d1824262d82100280000f0d2
:10140800e7fb39000090300000f0e2fb009b210070
:101418001b1a1a002800039300f0cefb00900191dc
:10142800019bbb4246d802d1009bb34242d8009be5
:10143800019c039a01200021f61aa74100f0bcfb89
:10144800039b002b2fd0019b009adb0754081c43f9
:10145800019b5d08039b9c46bd422ed801d1b44236
:101468002bd832003b00121bab41012692185b417e
:101478000027b6185f4101235b429c446346002b5a
:10148800ead180197941039a04000d00300039002f
:1014980000f086fb039a06000f0000f08dfb241a6b
:1014a8008d41200029000a9b002b01d01e605f603f
:1014b80005b0f0bd00200021c2e7b6197f41dae788
:0614c80000200021efe707
:020000040000fa
:0214ce00fee737
:020000040000fa
:1014d000f0b54d006d0dac4685b01d035e00db0f11
:1014e0000193264b0c030290240bc90f03922d0b82
:1014f000760d9c4503d12700022307432dd11f4bb6
:101500009e4203d12f000223174326d100276346b2
:10151000bb4203d1204347424741ffb2002e01d1d5
:101520002a431dd0002f1fd0019b013b0120034304
:1015300013e0b44501da4b1ef8e7ac4219d809d1e3
:10154000029b039a934214d8029a03983b0082426a
:10155000f1d302e03b00ac42edd3180005b0f0bd82
:101560003300002ff9d104e0019b994201d1b44529
:10157000dfdd012349420b43efe7c046ff070000d0
:10158000f7b51e035c00db0f0093244b0d034f00e7
:1015900084462d0b7f0dc90f0192360b640d9f42bf
:1015a00002d12b0003432bd11c4b9c4202d13300b0
:1015b000134325d100239f4203d128434342434193
:1015c000dbb2002c01d132431dd0002b1fd000987c
:1015d0000138012103e0a74203da01200139084361
:1015e0000de0b54218d807d1019a944514d81800d7
:1015f000019b9c45f1d302e01800b542edd3febd3e
:1016000002204042fbe72000002bf8d104e0009ac2
:10161000914201d1a742dedd4842dae7ff07000030
:020000040000fa
:10162000204a214b70b50021934203d21970013337
:101630009342fbd1002503261c4803684168002b18
:1016400018d100292dd083680c30002b18d000232e
:101650000022845c9c5401328a42fad333000b404e
:101660005a1e934189085918890040180368416837
:10167000002be6d082680c30002a07d10029dcd08c
:1016800059181d7001338b42fbd1d6e70029dfd1f9
:1016900033000b405a1e934189085918890040189d
:1016a000e4e770bd00000020000000209c1a00004c
:020000040000fa
:1016b000002934d00123002210b488422cd3012405
:1016c0002407a14204d2814202d209011b01f8e79a
:1016d000e400a14204d2814202d249005b00f8e753
:1016e000884201d3401a1a434c08a04202d3001b7f
:1016f0005c0822438c08a04202d3001b9c082243b2
:10170000cc08a04202d3001bdc082243002803d0ef
:101710001b0901d00909e3e7101c10bc704701b593
:10172000002000f097fa02bd0029f8d003b5fff7ba
:10173000c1ff0ebc4243891a1847c0468446101c9c
:1017400062468c46191c634600e0c0461fb5fff791
:10175000bffe002801d40021c8421fbd10b500f013
:101760009ff84042013010bd10b5fff7b1fe0028d0
:1017700001db002010bd012010bdc04610b5fff7f1
:10178000a7fe002801dd002010bd012010bdc046cd
:1017900010b5fff7f5fe002801dc002010bd012088
:1017a00010bdc04610b5fff7ebfe002801da00209f
:1017b00010bd012010bdc046f8b5051e2ad0c317c4
:1017c000c5185d40c40f280000f088f91349144b78
:1017d000091a5b1a1f2b17dc0b22101a2a00c240b1
:1017e0009d401000002700033a0d000b1205024334
:1017f0000c484b0502405b0813435b00e4075b08a1
:10180000234328001900f8bd2800074b00255b1a68
:101810009840e7e701000400e4e7c0461e0400002a
:0c18200033040000ffff0f8013040000e1
:020000040000fa
:10182c00f0b517008fb0252206000d0004a818494a
:10183c0000f0e2f904aabb1e00240392222b05d966
:10184c002c70250028000fb0f0bd019c631c019387
:10185c00eb1800933000013b39000293fff75eff59
:10186c00039b029a5b5c300013703900fff71aff80
:10187c00061eead1009b18702b005a1b9442e1dd26
:10188c001a78295d19702a550133013cf5e7c046d9
:04189c00801b0000ad
:020000040000fa
:1018a000f0b50c0385b04d000600c90f17481f03a3
:1018b00001915900db0f240b6d0d03923f0b490d75
:1018c0000293854206d12300012033431ad1a94255
:1018d00018d101e0814203d13a430120002a11d1fd
:1018e00001208d420ed1bc420cd1039a964209d1ff
:1018f000019b029a934207d0002d03d1344320006c
:10190000441ea04105b0f0bd0020fbe7ff0700002a
:1019100030b5134c0b034a0005001b0b520dc90fc9
:101920000020a24204dd0f48824202dd0e4bc8189f
:1019300030bd80200d4c40030343a41a1f2c09dc4a
:101940000b48e54012189340180028430029efd0b7
:101950004042ede70748821ad3401800f6e7c04638
:10196000fe0300001d040000ffffff7f33040000a2
:08197000edfbffff1304000072
:020000040000fa
:101978000d4b002b00d098470c4b002b00d09847fc
:10198800fff74afe0a4aff210a4b8b4393600a4b32
:1019980098470a4b002b00d09847094b002b00d0e2
:1019a8009847fff787fcfee70000000000000000f2
:1019b80000ed00e000000000151a00000000000023
:0419c800000000001b
:020000040000fa
:1019cc0010b5064c2378002b07d1054b002b02d009
:1019dc00044800e000bf0123237010bd000000206c
:1019ec000000000000000000044b10b5002b03d0d9
:1019fc000349044800e000bf10bdc04600000000d1
:081a0c000400002000000000ae
:020000040000fa
:101a140070b500260c4d0d4c641ba410a64209d1d0
:101a24000026fef743fb0a4d0a4c641ba410a64291
:101a340005d170bdb300eb5898470136eee7b3000b
:101a4400eb5898470136f2e7bc000000bc000000e8
:081a5400bc000000c00000000e
:020000040000fa
:101a5c00002b11d1002a0fd1002900d1002802d06f
:101a6c000021c943081c07b4024802a14018029087
:101a7c0003bdc046d501000003b4684601b5029809
:101a8c00fff7aefc019b9e4602b00cbc7047c046f3
:020000040000fa
:101a9c001c000020040000000100000000000000f9
:101aac00000000201c0000000000000020000020ae
:101abc0004000000000000002400002004000000ce
:101acc000100000000000000000000000000000009
:020000040000fa
:101adc001c2101231b04984201d3000c10391b0a52
:101aec00984201d3000a08391b09984201d3000916
:101afc00043902a2105c40187047c046040302026d
:101b0c0001010101000000000000000070b500227e
:101b1c000b4b04000d00fff73ffe00280bd0084bc9
:101b2c00002220002900fef7d1fafff7ebfe8023fc
:101b3c001b06c01870bd20002900fff7e3fef9e773
:041b4c000000e04174
:020000040000fa
:101b5000931e10b50c00222b04d900231c000b701f
:101b6000200010bd0a2a09d1002807da2d230b70a6
:101b7000012140426118fff759fef1e70021f9e722
:020000040000fa
:101b800030313233343536373839616263646566f3
:101b90006768696a6b6c6d6e6f707172737475765d
:051ba0007778797a005e
:020000040000fa
:101ba800d0400b1cd1409c46203ad34018435242a7
:101bb80063469340184370479140031c90409c46ed
:101bc800203a9340194352426346d3401943704721
:101bd80010b5002903d1fff77dff203002e0081c73
:101be800fff778ff10bdc04603b4714649084000ae
:0c1bf8004900095a49008e4403bc7047a4
:020000040000fa
:101c0400002310b59a4200d110bdcc5cc4540133fa
:021c1400f8e7ef
:020000040000fa
:101c160003008218934200d1704719700133f9e727
:020000040000fa
:0e1c26000023c25c0133002afbd1581e704718
:020000040000fa
:0c1c340054776f3a2000c0460d0a0000f3
:020000040000fa
:081c400010b5fff785ff10bd90
:020000040000fa
:081c480010b5fff7effd10bd20
:020000040000fa
:041c500030780000e8
:020000040000fa
:041c54007047c046cf
:00000001FF
